{
  "_format": "hh-sol-artifact-1",
  "contractName": "PropertyNFT",
  "sourceName": "contracts/PropertyNFT.sol",
  "abi": [
    {
      "inputs": [],
      "stateMutability": "nonpayable",
      "type": "constructor"
    },
    {
      "anonymous": false,
      "inputs": [
        {
          "indexed": true,
          "internalType": "address",
          "name": "owner",
          "type": "address"
        },
        {
          "indexed": true,
          "internalType": "address",
          "name": "approved",
          "type": "address"
        },
        {
          "indexed": true,
          "internalType": "uint256",
          "name": "tokenId",
          "type": "uint256"
        }
      ],
      "name": "Approval",
      "type": "event"
    },
    {
      "anonymous": false,
      "inputs": [
        {
          "indexed": true,
          "internalType": "address",
          "name": "owner",
          "type": "address"
        },
        {
          "indexed": true,
          "internalType": "address",
          "name": "operator",
          "type": "address"
        },
        {
          "indexed": false,
          "internalType": "bool",
          "name": "approved",
          "type": "bool"
        }
      ],
      "name": "ApprovalForAll",
      "type": "event"
    },
    {
      "anonymous": false,
      "inputs": [
        {
          "indexed": true,
          "internalType": "address",
          "name": "from",
          "type": "address"
        },
        {
          "indexed": true,
          "internalType": "address",
          "name": "to",
          "type": "address"
        },
        {
          "indexed": true,
          "internalType": "uint256",
          "name": "tokenId",
          "type": "uint256"
        }
      ],
      "name": "Transfer",
      "type": "event"
    },
    {
      "inputs": [
        {
          "internalType": "uint256",
          "name": "offerId",
          "type": "uint256"
        }
      ],
      "name": "acceptOffer",
      "outputs": [],
      "stateMutability": "payable",
      "type": "function"
    },
    {
      "inputs": [
        {
          "internalType": "address",
          "name": "to",
          "type": "address"
        },
        {
          "internalType": "uint256",
          "name": "tokenId",
          "type": "uint256"
        }
      ],
      "name": "approve",
      "outputs": [],
      "stateMutability": "nonpayable",
      "type": "function"
    },
    {
      "inputs": [
        {
          "internalType": "address",
          "name": "owner",
          "type": "address"
        }
      ],
      "name": "balanceOf",
      "outputs": [
        {
          "internalType": "uint256",
          "name": "",
          "type": "uint256"
        }
      ],
      "stateMutability": "view",
      "type": "function"
    },
    {
      "inputs": [
        {
          "internalType": "uint256",
          "name": "tokenId",
          "type": "uint256"
        },
        {
          "internalType": "address",
          "name": "buyer",
          "type": "address"
        },
        {
          "internalType": "uint256",
          "name": "price",
          "type": "uint256"
        }
      ],
      "name": "createOffer",
      "outputs": [],
      "stateMutability": "nonpayable",
      "type": "function"
    },
    {
      "inputs": [
        {
          "internalType": "uint256",
          "name": "tokenId",
          "type": "uint256"
        }
      ],
      "name": "getApproved",
      "outputs": [
        {
          "internalType": "address",
          "name": "",
          "type": "address"
        }
      ],
      "stateMutability": "view",
      "type": "function"
    },
    {
      "inputs": [
        {
          "internalType": "address",
          "name": "user",
          "type": "address"
        }
      ],
      "name": "getPendingOffers",
      "outputs": [
        {
          "components": [
            {
              "internalType": "uint256",
              "name": "offerId",
              "type": "uint256"
            },
            {
              "internalType": "uint256",
              "name": "tokenId",
              "type": "uint256"
            },
            {
              "internalType": "address",
              "name": "seller",
              "type": "address"
            },
            {
              "internalType": "address",
              "name": "buyer",
              "type": "address"
            },
            {
              "internalType": "uint256",
              "name": "price",
              "type": "uint256"
            },
            {
              "internalType": "bool",
              "name": "active",
              "type": "bool"
            }
          ],
          "internalType": "struct PropertyNFT.Offer[]",
          "name": "",
          "type": "tuple[]"
        }
      ],
      "stateMutability": "view",
      "type": "function"
    },
    {
      "inputs": [
        {
          "internalType": "uint256",
          "name": "tokenId",
          "type": "uint256"
        }
      ],
      "name": "getProperty",
      "outputs": [
        {
          "internalType": "string",
          "name": "itemType",
          "type": "string"
        },
        {
          "internalType": "string",
          "name": "name",
          "type": "string"
        },
        {
          "internalType": "uint256",
          "name": "value",
          "type": "uint256"
        },
        {
          "internalType": "string",
          "name": "purchaseDate",
          "type": "string"
        },
        {
          "internalType": "string",
          "name": "vin",
          "type": "string"
        },
        {
          "internalType": "string",
          "name": "addr",
          "type": "string"
        }
      ],
      "stateMutability": "view",
      "type": "function"
    },
    {
      "inputs": [
        {
          "internalType": "address",
          "name": "owner",
          "type": "address"
        },
        {
          "internalType": "address",
          "name": "operator",
          "type": "address"
        }
      ],
      "name": "isApprovedForAll",
      "outputs": [
        {
          "internalType": "bool",
          "name": "",
          "type": "bool"
        }
      ],
      "stateMutability": "view",
      "type": "function"
    },
    {
      "inputs": [
        {
          "internalType": "address",
          "name": "to",
          "type": "address"
        },
        {
          "internalType": "string",
          "name": "name",
          "type": "string"
        },
        {
          "internalType": "uint256",
          "name": "value",
          "type": "uint256"
        },
        {
          "internalType": "string",
          "name": "purchaseDate",
          "type": "string"
        },
        {
          "internalType": "string",
          "name": "vin",
          "type": "string"
        }
      ],
      "name": "mintCar",
      "outputs": [],
      "stateMutability": "nonpayable",
      "type": "function"
    },
    {
      "inputs": [
        {
          "internalType": "address",
          "name": "to",
          "type": "address"
        },
        {
          "internalType": "string",
          "name": "name",
          "type": "string"
        },
        {
          "internalType": "uint256",
          "name": "value",
          "type": "uint256"
        },
        {
          "internalType": "string",
          "name": "purchaseDate",
          "type": "string"
        },
        {
          "internalType": "string",
          "name": "addr",
          "type": "string"
        }
      ],
      "name": "mintHouse",
      "outputs": [],
      "stateMutability": "nonpayable",
      "type": "function"
    },
    {
      "inputs": [],
      "name": "name",
      "outputs": [
        {
          "internalType": "string",
          "name": "",
          "type": "string"
        }
      ],
      "stateMutability": "view",
      "type": "function"
    },
    {
      "inputs": [],
      "name": "nextTokenId",
      "outputs": [
        {
          "internalType": "uint256",
          "name": "",
          "type": "uint256"
        }
      ],
      "stateMutability": "view",
      "type": "function"
    },
    {
      "inputs": [],
      "name": "offerCount",
      "outputs": [
        {
          "internalType": "uint256",
          "name": "",
          "type": "uint256"
        }
      ],
      "stateMutability": "view",
      "type": "function"
    },
    {
      "inputs": [
        {
          "internalType": "uint256",
          "name": "",
          "type": "uint256"
        }
      ],
      "name": "offers",
      "outputs": [
        {
          "internalType": "uint256",
          "name": "offerId",
          "type": "uint256"
        },
        {
          "internalType": "uint256",
          "name": "tokenId",
          "type": "uint256"
        },
        {
          "internalType": "address",
          "name": "seller",
          "type": "address"
        },
        {
          "internalType": "address",
          "name": "buyer",
          "type": "address"
        },
        {
          "internalType": "uint256",
          "name": "price",
          "type": "uint256"
        },
        {
          "internalType": "bool",
          "name": "active",
          "type": "bool"
        }
      ],
      "stateMutability": "view",
      "type": "function"
    },
    {
      "inputs": [
        {
          "internalType": "uint256",
          "name": "tokenId",
          "type": "uint256"
        }
      ],
      "name": "ownerOf",
      "outputs": [
        {
          "internalType": "address",
          "name": "",
          "type": "address"
        }
      ],
      "stateMutability": "view",
      "type": "function"
    },
    {
      "inputs": [
        {
          "internalType": "address",
          "name": "",
          "type": "address"
        },
        {
          "internalType": "uint256",
          "name": "",
          "type": "uint256"
        }
      ],
      "name": "pendingOffersFor",
      "outputs": [
        {
          "internalType": "uint256",
          "name": "",
          "type": "uint256"
        }
      ],
      "stateMutability": "view",
      "type": "function"
    },
    {
      "inputs": [
        {
          "internalType": "uint256",
          "name": "",
          "type": "uint256"
        }
      ],
      "name": "properties",
      "outputs": [
        {
          "internalType": "enum PropertyNFT.ItemType",
          "name": "itemType",
          "type": "uint8"
        },
        {
          "internalType": "string",
          "name": "name",
          "type": "string"
        },
        {
          "internalType": "uint256",
          "name": "value",
          "type": "uint256"
        },
        {
          "internalType": "string",
          "name": "purchaseDate",
          "type": "string"
        },
        {
          "internalType": "string",
          "name": "vin",
          "type": "string"
        },
        {
          "internalType": "string",
          "name": "addr",
          "type": "string"
        }
      ],
      "stateMutability": "view",
      "type": "function"
    },
    {
      "inputs": [
        {
          "internalType": "address",
          "name": "from",
          "type": "address"
        },
        {
          "internalType": "address",
          "name": "to",
          "type": "address"
        },
        {
          "internalType": "uint256",
          "name": "tokenId",
          "type": "uint256"
        }
      ],
      "name": "safeTransferFrom",
      "outputs": [],
      "stateMutability": "nonpayable",
      "type": "function"
    },
    {
      "inputs": [
        {
          "internalType": "address",
          "name": "from",
          "type": "address"
        },
        {
          "internalType": "address",
          "name": "to",
          "type": "address"
        },
        {
          "internalType": "uint256",
          "name": "tokenId",
          "type": "uint256"
        },
        {
          "internalType": "bytes",
          "name": "data",
          "type": "bytes"
        }
      ],
      "name": "safeTransferFrom",
      "outputs": [],
      "stateMutability": "nonpayable",
      "type": "function"
    },
    {
      "inputs": [
        {
          "internalType": "address",
          "name": "operator",
          "type": "address"
        },
        {
          "internalType": "bool",
          "name": "approved",
          "type": "bool"
        }
      ],
      "name": "setApprovalForAll",
      "outputs": [],
      "stateMutability": "nonpayable",
      "type": "function"
    },
    {
      "inputs": [
        {
          "internalType": "bytes4",
          "name": "interfaceId",
          "type": "bytes4"
        }
      ],
      "name": "supportsInterface",
      "outputs": [
        {
          "internalType": "bool",
          "name": "",
          "type": "bool"
        }
      ],
      "stateMutability": "view",
      "type": "function"
    },
    {
      "inputs": [],
      "name": "symbol",
      "outputs": [
        {
          "internalType": "string",
          "name": "",
          "type": "string"
        }
      ],
      "stateMutability": "view",
      "type": "function"
    },
    {
      "inputs": [
        {
          "internalType": "uint256",
          "name": "index",
          "type": "uint256"
        }
      ],
      "name": "tokenByIndex",
      "outputs": [
        {
          "internalType": "uint256",
          "name": "",
          "type": "uint256"
        }
      ],
      "stateMutability": "view",
      "type": "function"
    },
    {
      "inputs": [
        {
          "internalType": "address",
          "name": "owner",
          "type": "address"
        },
        {
          "internalType": "uint256",
          "name": "index",
          "type": "uint256"
        }
      ],
      "name": "tokenOfOwnerByIndex",
      "outputs": [
        {
          "internalType": "uint256",
          "name": "",
          "type": "uint256"
        }
      ],
      "stateMutability": "view",
      "type": "function"
    },
    {
      "inputs": [
        {
          "internalType": "uint256",
          "name": "tokenId",
          "type": "uint256"
        }
      ],
      "name": "tokenURI",
      "outputs": [
        {
          "internalType": "string",
          "name": "",
          "type": "string"
        }
      ],
      "stateMutability": "view",
      "type": "function"
    },
    {
      "inputs": [],
      "name": "totalSupply",
      "outputs": [
        {
          "internalType": "uint256",
          "name": "",
          "type": "uint256"
        }
      ],
      "stateMutability": "view",
      "type": "function"
    },
    {
      "inputs": [
        {
          "internalType": "address",
          "name": "from",
          "type": "address"
        },
        {
          "internalType": "address",
          "name": "to",
          "type": "address"
        },
        {
          "internalType": "uint256",
          "name": "tokenId",
          "type": "uint256"
        }
      ],
      "name": "transferFrom",
      "outputs": [],
      "stateMutability": "nonpayable",
      "type": "function"
    }
  ],
  "bytecode": "0x60806040523480156200001157600080fd5b506040518060400160405280600f81526020017f5669727475616c50726f706572747900000000000000000000000000000000008152506040518060400160405280600581526020017f5650524f5000000000000000000000000000000000000000000000000000000081525081600090816200008f919062000324565b508060019081620000a1919062000324565b5050506200040b565b600081519050919050565b7f4e487b7100000000000000000000000000000000000000000000000000000000600052604160045260246000fd5b7f4e487b7100000000000000000000000000000000000000000000000000000000600052602260045260246000fd5b600060028204905060018216806200012c57607f821691505b602082108103620001425762000141620000e4565b5b50919050565b60008190508160005260206000209050919050565b60006020601f8301049050919050565b600082821b905092915050565b600060088302620001ac7fffffffffffffffffffffffffffffffffffffffffffffffffffffffffffffffff826200016d565b620001b886836200016d565b95508019841693508086168417925050509392505050565b6000819050919050565b6000819050919050565b600062000205620001ff620001f984620001d0565b620001da565b620001d0565b9050919050565b6000819050919050565b6200022183620001e4565b6200023962000230826200020c565b8484546200017a565b825550505050565b600090565b6200025062000241565b6200025d81848462000216565b505050565b5b8181101562000285576200027960008262000246565b60018101905062000263565b5050565b601f821115620002d4576200029e8162000148565b620002a9846200015d565b81016020851015620002b9578190505b620002d1620002c8856200015d565b83018262000262565b50505b505050565b600082821c905092915050565b6000620002f960001984600802620002d9565b1980831691505092915050565b6000620003148383620002e6565b9150826002028217905092915050565b6200032f82620000aa565b67ffffffffffffffff8111156200034b576200034a620000b5565b5b62000357825462000113565b6200036482828562000289565b600060209050601f8311600181146200039c576000841562000387578287015190505b62000393858262000306565b86555062000403565b601f198416620003ac8662000148565b60005b82811015620003d657848901518255600182019150602085019450602081019050620003af565b86831015620003f65784890151620003f2601f891682620002e6565b8355505b6001600288020188555050505b505050505050565b614d19806200041b6000396000f3fe60806040526004361061019c5760003560e01c80636352211e116100ec578063a22cb4651161008a578063c87b56dd11610064578063c87b56dd1461061f578063d78144cb1461065c578063e985e9c514610685578063f7b10808146106c25761019c565b8063a22cb465146105b1578063b88d4fde146105da578063c815729d146106035761019c565b80638a72ea6a116100c65780638a72ea6a146104f257806395d89b4114610534578063964348b61461055f5780639b59d95b146105885761019c565b80636352211e1461044d57806370a082311461048a57806375794a3c146104c75761019c565b806323b872dd1161015957806336cca98a1161013357806336cca98a1461036d57806340882844146103aa57806342842e0e146103e75780634f6ccce7146104105761019c565b806323b872dd146102c55780632f745c59146102ee57806332665ffb1461032b5761019c565b806301ffc9a7146101a157806306fdde03146101de578063081812fc14610209578063095ea7b3146102465780631115c24d1461026f57806318160ddd1461029a575b600080fd5b3480156101ad57600080fd5b506101c860048036038101906101c391906133a7565b610704565b6040516101d591906133ef565b60405180910390f35b3480156101ea57600080fd5b506101f3610716565b604051610200919061349a565b60405180910390f35b34801561021557600080fd5b50610230600480360381019061022b91906134f2565b6107a8565b60405161023d9190613560565b60405180910390f35b34801561025257600080fd5b5061026d600480360381019061026891906135a7565b6107ee565b005b34801561027b57600080fd5b50610284610905565b60405161029191906135f6565b60405180910390f35b3480156102a657600080fd5b506102af61090b565b6040516102bc91906135f6565b60405180910390f35b3480156102d157600080fd5b506102ec60048036038101906102e79190613611565b610918565b005b3480156102fa57600080fd5b50610315600480360381019061031091906135a7565b610978565b60405161032291906135f6565b60405180910390f35b34801561033757600080fd5b50610352600480360381019061034d91906134f2565b610a1d565b60405161036496959493929190613664565b60405180910390f35b34801561037957600080fd5b50610394600480360381019061038f91906136e8565b610daa565b6040516103a1919061386c565b60405180910390f35b3480156103b657600080fd5b506103d160048036038101906103cc91906135a7565b610fb6565b6040516103de91906135f6565b60405180910390f35b3480156103f357600080fd5b5061040e60048036038101906104099190613611565b610fe7565b005b34801561041c57600080fd5b50610437600480360381019061043291906134f2565b611007565b60405161044491906135f6565b60405180910390f35b34801561045957600080fd5b50610474600480360381019061046f91906134f2565b611078565b6040516104819190613560565b60405180910390f35b34801561049657600080fd5b506104b160048036038101906104ac91906136e8565b6110fe565b6040516104be91906135f6565b60405180910390f35b3480156104d357600080fd5b506104dc6111b5565b6040516104e991906135f6565b60405180910390f35b3480156104fe57600080fd5b50610519600480360381019061051491906134f2565b6111bb565b60405161052b9695949392919061388e565b60405180910390f35b34801561054057600080fd5b50610549611244565b604051610556919061349a565b60405180910390f35b34801561056b57600080fd5b5061058660048036038101906105819190613a24565b6112d6565b005b34801561059457600080fd5b506105af60048036038101906105aa9190613af3565b6113f9565b005b3480156105bd57600080fd5b506105d860048036038101906105d39190613b72565b611636565b005b3480156105e657600080fd5b5061060160048036038101906105fc9190613c53565b61164c565b005b61061d600480360381019061061891906134f2565b6116ae565b005b34801561062b57600080fd5b50610646600480360381019061064191906134f2565b611aae565b604051610653919061349a565b60405180910390f35b34801561066857600080fd5b50610683600480360381019061067e9190613a24565b611b16565b005b34801561069157600080fd5b506106ac60048036038101906106a79190613cd6565b611c3a565b6040516106b991906133ef565b60405180910390f35b3480156106ce57600080fd5b506106e960048036038101906106e491906134f2565b611cce565b6040516106fb96959493929190613d8d565b60405180910390f35b600061070f82611f37565b9050919050565b60606000805461072590613e39565b80601f016020809104026020016040519081016040528092919081815260200182805461075190613e39565b801561079e5780601f106107735761010080835404028352916020019161079e565b820191906000526020600020905b81548152906001019060200180831161078157829003601f168201915b5050505050905090565b60006107b382611fb1565b6004600083815260200190815260200160002060009054906101000a900473ffffffffffffffffffffffffffffffffffffffff169050919050565b60006107f982611078565b90508073ffffffffffffffffffffffffffffffffffffffff168373ffffffffffffffffffffffffffffffffffffffff1603610869576040517f08c379a000000000000000000000000000000000000000000000000000000000815260040161086090613edc565b60405180910390fd5b8073ffffffffffffffffffffffffffffffffffffffff16610888611ffc565b73ffffffffffffffffffffffffffffffffffffffff1614806108b757506108b6816108b1611ffc565b611c3a565b5b6108f6576040517f08c379a00000000000000000000000000000000000000000000000000000000081526004016108ed90613f6e565b60405180910390fd5b6109008383612004565b505050565b600c5481565b6000600880549050905090565b610929610923611ffc565b826120bd565b610968576040517f08c379a000000000000000000000000000000000000000000000000000000000815260040161095f90614000565b60405180910390fd5b610973838383612152565b505050565b6000610983836110fe565b82106109c4576040517f08c379a00000000000000000000000000000000000000000000000000000000081526004016109bb90614092565b60405180910390fd5b600660008473ffffffffffffffffffffffffffffffffffffffff1673ffffffffffffffffffffffffffffffffffffffff168152602001908152602001600020600083815260200190815260200160002054905092915050565b606080600060608060606000600b60008981526020019081526020016000206040518060c00160405290816000820160009054906101000a900460ff166001811115610a6c57610a6b613d16565b5b6001811115610a7e57610a7d613d16565b5b8152602001600182018054610a9290613e39565b80601f0160208091040260200160405190810160405280929190818152602001828054610abe90613e39565b8015610b0b5780601f10610ae057610100808354040283529160200191610b0b565b820191906000526020600020905b815481529060010190602001808311610aee57829003601f168201915b5050505050815260200160028201548152602001600382018054610b2e90613e39565b80601f0160208091040260200160405190810160405280929190818152602001828054610b5a90613e39565b8015610ba75780601f10610b7c57610100808354040283529160200191610ba7565b820191906000526020600020905b815481529060010190602001808311610b8a57829003601f168201915b50505050508152602001600482018054610bc090613e39565b80601f0160208091040260200160405190810160405280929190818152602001828054610bec90613e39565b8015610c395780601f10610c0e57610100808354040283529160200191610c39565b820191906000526020600020905b815481529060010190602001808311610c1c57829003601f168201915b50505050508152602001600582018054610c5290613e39565b80601f0160208091040260200160405190810160405280929190818152602001828054610c7e90613e39565b8015610ccb5780601f10610ca057610100808354040283529160200191610ccb565b820191906000526020600020905b815481529060010190602001808311610cae57829003601f168201915b505050505081525050905060006001811115610cea57610ce9613d16565b5b81600001516001811115610d0157610d00613d16565b5b14610d41576040518060400160405280600581526020017f686f757365000000000000000000000000000000000000000000000000000000815250610d78565b6040518060400160405280600381526020017f63617200000000000000000000000000000000000000000000000000000000008152505b96508681602001518260400151836060015184608001518560a001519650965096509650965096505091939550919395565b60606000600e60008473ffffffffffffffffffffffffffffffffffffffff1673ffffffffffffffffffffffffffffffffffffffff16815260200190815260200160002090506000818054905067ffffffffffffffff811115610e0f57610e0e6138f9565b5b604051908082528060200260200182016040528015610e4857816020015b610e356132d7565b815260200190600190039081610e2d5790505b50905060005b8280549050811015610fab57600d6000848381548110610e7157610e706140b2565b5b906000526020600020015481526020019081526020016000206040518060c001604052908160008201548152602001600182015481526020016002820160009054906101000a900473ffffffffffffffffffffffffffffffffffffffff1673ffffffffffffffffffffffffffffffffffffffff1673ffffffffffffffffffffffffffffffffffffffff1681526020016003820160009054906101000a900473ffffffffffffffffffffffffffffffffffffffff1673ffffffffffffffffffffffffffffffffffffffff1673ffffffffffffffffffffffffffffffffffffffff168152602001600482015481526020016005820160009054906101000a900460ff161515151581525050828281518110610f8d57610f8c6140b2565b5b60200260200101819052508080610fa390614110565b915050610e4e565b508092505050919050565b600e6020528160005260406000208181548110610fd257600080fd5b90600052602060002001600091509150505481565b6110028383836040518060200160405280600081525061164c565b505050565b600061101161090b565b8210611052576040517f08c379a0000000000000000000000000000000000000000000000000000000008152600401611049906141ca565b60405180910390fd5b60088281548110611066576110656140b2565b5b90600052602060002001549050919050565b6000806110848361244b565b9050600073ffffffffffffffffffffffffffffffffffffffff168173ffffffffffffffffffffffffffffffffffffffff16036110f5576040517f08c379a00000000000000000000000000000000000000000000000000000000081526004016110ec90614236565b60405180910390fd5b80915050919050565b60008073ffffffffffffffffffffffffffffffffffffffff168273ffffffffffffffffffffffffffffffffffffffff160361116e576040517f08c379a0000000000000000000000000000000000000000000000000000000008152600401611165906142c8565b60405180910390fd5b600360008373ffffffffffffffffffffffffffffffffffffffff1673ffffffffffffffffffffffffffffffffffffffff168152602001908152602001600020549050919050565b600a5481565b600d6020528060005260406000206000915090508060000154908060010154908060020160009054906101000a900473ffffffffffffffffffffffffffffffffffffffff16908060030160009054906101000a900473ffffffffffffffffffffffffffffffffffffffff16908060040154908060050160009054906101000a900460ff16905086565b60606001805461125390613e39565b80601f016020809104026020016040519081016040528092919081815260200182805461127f90613e39565b80156112cc5780601f106112a1576101008083540402835291602001916112cc565b820191906000526020600020905b8154815290600101906020018083116112af57829003601f168201915b5050505050905090565b6040518060c001604052806001808111156112f4576112f3613d16565b5b815260200185815260200184815260200183815260200160405180602001604052806000815250815260200182815250600b6000600a54815260200190815260200160002060008201518160000160006101000a81548160ff0219169083600181111561136457611363613d16565b5b0217905550602082015181600101908161137e9190614494565b5060408201518160020155606082015181600301908161139e9190614494565b5060808201518160040190816113b49190614494565b5060a08201518160050190816113ca9190614494565b509050506113da85600a54612488565b600a60008154809291906113ed90614110565b91905055505050505050565b3373ffffffffffffffffffffffffffffffffffffffff1661141984611078565b73ffffffffffffffffffffffffffffffffffffffff161461146f576040517f08c379a0000000000000000000000000000000000000000000000000000000008152600401611466906145b2565b60405180910390fd5b6040518060c00160405280600c5481526020018481526020013373ffffffffffffffffffffffffffffffffffffffff1681526020018373ffffffffffffffffffffffffffffffffffffffff16815260200182815260200160011515815250600d6000600c548152602001908152602001600020600082015181600001556020820151816001015560408201518160020160006101000a81548173ffffffffffffffffffffffffffffffffffffffff021916908373ffffffffffffffffffffffffffffffffffffffff16021790555060608201518160030160006101000a81548173ffffffffffffffffffffffffffffffffffffffff021916908373ffffffffffffffffffffffffffffffffffffffff1602179055506080820151816004015560a08201518160050160006101000a81548160ff021916908315150217905550905050600e60008373ffffffffffffffffffffffffffffffffffffffff1673ffffffffffffffffffffffffffffffffffffffff168152602001908152602001600020600c549080600181540180825580915050600190039060005260206000200160009091909190915055600c600081548092919061162c90614110565b9190505550505050565b611648611641611ffc565b83836124a6565b5050565b61165d611657611ffc565b836120bd565b61169c576040517f08c379a000000000000000000000000000000000000000000000000000000000815260040161169390614000565b60405180910390fd5b6116a884848484612612565b50505050565b6000600d600083815260200190815260200160002090508060050160009054906101000a900460ff16611716576040517f08c379a000000000000000000000000000000000000000000000000000000000815260040161170d9061461e565b60405180910390fd5b3373ffffffffffffffffffffffffffffffffffffffff168160030160009054906101000a900473ffffffffffffffffffffffffffffffffffffffff1673ffffffffffffffffffffffffffffffffffffffff16146117a8576040517f08c379a000000000000000000000000000000000000000000000000000000000815260040161179f9061468a565b60405180910390fd5b80600401543410156117ef576040517f08c379a00000000000000000000000000000000000000000000000000000000081526004016117e6906146f6565b60405180910390fd5b8060020160009054906101000a900473ffffffffffffffffffffffffffffffffffffffff1673ffffffffffffffffffffffffffffffffffffffff166118378260010154611078565b73ffffffffffffffffffffffffffffffffffffffff161461188d576040517f08c379a000000000000000000000000000000000000000000000000000000000815260040161188490614762565b60405180910390fd5b60008160050160006101000a81548160ff0219169083151502179055506119118160020160009054906101000a900473ffffffffffffffffffffffffffffffffffffffff168260030160009054906101000a900473ffffffffffffffffffffffffffffffffffffffff16836001015460405180602001604052806000815250612612565b8060020160009054906101000a900473ffffffffffffffffffffffffffffffffffffffff1673ffffffffffffffffffffffffffffffffffffffff166108fc82600401549081150290604051600060405180830381858888f1935050505015801561197f573d6000803e3d6000fd5b506000600e60008360030160009054906101000a900473ffffffffffffffffffffffffffffffffffffffff1673ffffffffffffffffffffffffffffffffffffffff1673ffffffffffffffffffffffffffffffffffffffff168152602001908152602001600020905060005b8180549050811015611aa85783828281548110611a0a57611a096140b2565b5b906000526020600020015403611a95578160018380549050611a2c9190614782565b81548110611a3d57611a3c6140b2565b5b9060005260206000200154828281548110611a5b57611a5a6140b2565b5b906000526020600020018190555081805480611a7a57611a796147b6565b5b60019003818190600052602060002001600090559055611aa8565b8080611aa090614110565b9150506119ea565b50505050565b6060611ab982611fb1565b6000611ac361266e565b90506000815111611ae35760405180602001604052806000815250611b0e565b80611aed84612685565b604051602001611afe929190614821565b6040516020818303038152906040525b915050919050565b6040518060c0016040528060006001811115611b3557611b34613d16565b5b815260200185815260200184815260200183815260200182815260200160405180602001604052806000815250815250600b6000600a54815260200190815260200160002060008201518160000160006101000a81548160ff02191690836001811115611ba557611ba4613d16565b5b02179055506020820151816001019081611bbf9190614494565b50604082015181600201556060820151816003019081611bdf9190614494565b506080820151816004019081611bf59190614494565b5060a0820151816005019081611c0b9190614494565b50905050611c1b85600a54612488565b600a6000815480929190611c2e90614110565b91905055505050505050565b6000600560008473ffffffffffffffffffffffffffffffffffffffff1673ffffffffffffffffffffffffffffffffffffffff16815260200190815260200160002060008373ffffffffffffffffffffffffffffffffffffffff1673ffffffffffffffffffffffffffffffffffffffff16815260200190815260200160002060009054906101000a900460ff16905092915050565b600b6020528060005260406000206000915090508060000160009054906101000a900460ff1690806001018054611d0490613e39565b80601f0160208091040260200160405190810160405280929190818152602001828054611d3090613e39565b8015611d7d5780601f10611d5257610100808354040283529160200191611d7d565b820191906000526020600020905b815481529060010190602001808311611d6057829003601f168201915b505050505090806002015490806003018054611d9890613e39565b80601f0160208091040260200160405190810160405280929190818152602001828054611dc490613e39565b8015611e115780601f10611de657610100808354040283529160200191611e11565b820191906000526020600020905b815481529060010190602001808311611df457829003601f168201915b505050505090806004018054611e2690613e39565b80601f0160208091040260200160405190810160405280929190818152602001828054611e5290613e39565b8015611e9f5780601f10611e7457610100808354040283529160200191611e9f565b820191906000526020600020905b815481529060010190602001808311611e8257829003601f168201915b505050505090806005018054611eb490613e39565b80601f0160208091040260200160405190810160405280929190818152602001828054611ee090613e39565b8015611f2d5780601f10611f0257610100808354040283529160200191611f2d565b820191906000526020600020905b815481529060010190602001808311611f1057829003601f168201915b5050505050905086565b60007f780e9d63000000000000000000000000000000000000000000000000000000007bffffffffffffffffffffffffffffffffffffffffffffffffffffffff1916827bffffffffffffffffffffffffffffffffffffffffffffffffffffffff19161480611faa5750611fa982612753565b5b9050919050565b611fba81612835565b611ff9576040517f08c379a0000000000000000000000000000000000000000000000000000000008152600401611ff090614236565b60405180910390fd5b50565b600033905090565b816004600083815260200190815260200160002060006101000a81548173ffffffffffffffffffffffffffffffffffffffff021916908373ffffffffffffffffffffffffffffffffffffffff160217905550808273ffffffffffffffffffffffffffffffffffffffff1661207783611078565b73ffffffffffffffffffffffffffffffffffffffff167f8c5be1e5ebec7d5bd14f71427d1e84f3dd0314c0f7b2291e5b200ac8c7c3b92560405160405180910390a45050565b6000806120c983611078565b90508073ffffffffffffffffffffffffffffffffffffffff168473ffffffffffffffffffffffffffffffffffffffff16148061210b575061210a8185611c3a565b5b8061214957508373ffffffffffffffffffffffffffffffffffffffff16612131846107a8565b73ffffffffffffffffffffffffffffffffffffffff16145b91505092915050565b8273ffffffffffffffffffffffffffffffffffffffff1661217282611078565b73ffffffffffffffffffffffffffffffffffffffff16146121c8576040517f08c379a00000000000000000000000000000000000000000000000000000000081526004016121bf906148b7565b60405180910390fd5b600073ffffffffffffffffffffffffffffffffffffffff168273ffffffffffffffffffffffffffffffffffffffff1603612237576040517f08c379a000000000000000000000000000000000000000000000000000000000815260040161222e90614949565b60405180910390fd5b6122448383836001612876565b8273ffffffffffffffffffffffffffffffffffffffff1661226482611078565b73ffffffffffffffffffffffffffffffffffffffff16146122ba576040517f08c379a00000000000000000000000000000000000000000000000000000000081526004016122b1906148b7565b60405180910390fd5b6004600082815260200190815260200160002060006101000a81549073ffffffffffffffffffffffffffffffffffffffff02191690556001600360008573ffffffffffffffffffffffffffffffffffffffff1673ffffffffffffffffffffffffffffffffffffffff168152602001908152602001600020600082825403925050819055506001600360008473ffffffffffffffffffffffffffffffffffffffff1673ffffffffffffffffffffffffffffffffffffffff16815260200190815260200160002060008282540192505081905550816002600083815260200190815260200160002060006101000a81548173ffffffffffffffffffffffffffffffffffffffff021916908373ffffffffffffffffffffffffffffffffffffffff160217905550808273ffffffffffffffffffffffffffffffffffffffff168473ffffffffffffffffffffffffffffffffffffffff167fddf252ad1be2c89b69c2b068fc378daa952ba7f163c4a11628f55a4df523b3ef60405160405180910390a46124468383836001612888565b505050565b60006002600083815260200190815260200160002060009054906101000a900473ffffffffffffffffffffffffffffffffffffffff169050919050565b6124a282826040518060200160405280600081525061288e565b5050565b8173ffffffffffffffffffffffffffffffffffffffff168373ffffffffffffffffffffffffffffffffffffffff1603612514576040517f08c379a000000000000000000000000000000000000000000000000000000000815260040161250b906149b5565b60405180910390fd5b80600560008573ffffffffffffffffffffffffffffffffffffffff1673ffffffffffffffffffffffffffffffffffffffff16815260200190815260200160002060008473ffffffffffffffffffffffffffffffffffffffff1673ffffffffffffffffffffffffffffffffffffffff16815260200190815260200160002060006101000a81548160ff0219169083151502179055508173ffffffffffffffffffffffffffffffffffffffff168373ffffffffffffffffffffffffffffffffffffffff167f17307eab39ab6107e8899845ad3d59bd9653f200f220920489ca2b5937696c318360405161260591906133ef565b60405180910390a3505050565b61261d848484612152565b612629848484846128e9565b612668576040517f08c379a000000000000000000000000000000000000000000000000000000000815260040161265f90614a47565b60405180910390fd5b50505050565b606060405180602001604052806000815250905090565b60606000600161269484612a70565b01905060008167ffffffffffffffff8111156126b3576126b26138f9565b5b6040519080825280601f01601f1916602001820160405280156126e55781602001600182028036833780820191505090505b509050600082602001820190505b600115612748578080600190039150507f3031323334353637383961626364656600000000000000000000000000000000600a86061a8153600a858161273c5761273b614a67565b5b049450600085036126f3575b819350505050919050565b60007f80ac58cd000000000000000000000000000000000000000000000000000000007bffffffffffffffffffffffffffffffffffffffffffffffffffffffff1916827bffffffffffffffffffffffffffffffffffffffffffffffffffffffff1916148061281e57507f5b5e139f000000000000000000000000000000000000000000000000000000007bffffffffffffffffffffffffffffffffffffffffffffffffffffffff1916827bffffffffffffffffffffffffffffffffffffffffffffffffffffffff1916145b8061282e575061282d82612bc3565b5b9050919050565b60008073ffffffffffffffffffffffffffffffffffffffff166128578361244b565b73ffffffffffffffffffffffffffffffffffffffff1614159050919050565b61288284848484612c2d565b50505050565b50505050565b6128988383612d8b565b6128a560008484846128e9565b6128e4576040517f08c379a00000000000000000000000000000000000000000000000000000000081526004016128db90614a47565b60405180910390fd5b505050565b600061290a8473ffffffffffffffffffffffffffffffffffffffff16612fa8565b15612a63578373ffffffffffffffffffffffffffffffffffffffff1663150b7a02612933611ffc565b8786866040518563ffffffff1660e01b81526004016129559493929190614aeb565b6020604051808303816000875af192505050801561299157506040513d601f19601f8201168201806040525081019061298e9190614b4c565b60015b612a13573d80600081146129c1576040519150601f19603f3d011682016040523d82523d6000602084013e6129c6565b606091505b506000815103612a0b576040517f08c379a0000000000000000000000000000000000000000000000000000000008152600401612a0290614a47565b60405180910390fd5b805181602001fd5b63150b7a0260e01b7bffffffffffffffffffffffffffffffffffffffffffffffffffffffff1916817bffffffffffffffffffffffffffffffffffffffffffffffffffffffff191614915050612a68565b600190505b949350505050565b600080600090507a184f03e93ff9f4daa797ed6e38ed64bf6a1f0100000000000000008310612ace577a184f03e93ff9f4daa797ed6e38ed64bf6a1f0100000000000000008381612ac457612ac3614a67565b5b0492506040810190505b6d04ee2d6d415b85acef81000000008310612b0b576d04ee2d6d415b85acef81000000008381612b0157612b00614a67565b5b0492506020810190505b662386f26fc100008310612b3a57662386f26fc100008381612b3057612b2f614a67565b5b0492506010810190505b6305f5e1008310612b63576305f5e1008381612b5957612b58614a67565b5b0492506008810190505b6127108310612b88576127108381612b7e57612b7d614a67565b5b0492506004810190505b60648310612bab5760648381612ba157612ba0614a67565b5b0492506002810190505b600a8310612bba576001810190505b80915050919050565b60007f01ffc9a7000000000000000000000000000000000000000000000000000000007bffffffffffffffffffffffffffffffffffffffffffffffffffffffff1916827bffffffffffffffffffffffffffffffffffffffffffffffffffffffff1916149050919050565b612c3984848484612fcb565b6001811115612c7d576040517f08c379a0000000000000000000000000000000000000000000000000000000008152600401612c7490614beb565b60405180910390fd5b6000829050600073ffffffffffffffffffffffffffffffffffffffff168573ffffffffffffffffffffffffffffffffffffffff1603612cc457612cbf81612fd1565b612d03565b8373ffffffffffffffffffffffffffffffffffffffff168573ffffffffffffffffffffffffffffffffffffffff1614612d0257612d01858261301a565b5b5b600073ffffffffffffffffffffffffffffffffffffffff168473ffffffffffffffffffffffffffffffffffffffff1603612d4557612d4081613187565b612d84565b8473ffffffffffffffffffffffffffffffffffffffff168473ffffffffffffffffffffffffffffffffffffffff1614612d8357612d828482613258565b5b5b5050505050565b600073ffffffffffffffffffffffffffffffffffffffff168273ffffffffffffffffffffffffffffffffffffffff1603612dfa576040517f08c379a0000000000000000000000000000000000000000000000000000000008152600401612df190614c57565b60405180910390fd5b612e0381612835565b15612e43576040517f08c379a0000000000000000000000000000000000000000000000000000000008152600401612e3a90614cc3565b60405180910390fd5b612e51600083836001612876565b612e5a81612835565b15612e9a576040517f08c379a0000000000000000000000000000000000000000000000000000000008152600401612e9190614cc3565b60405180910390fd5b6001600360008473ffffffffffffffffffffffffffffffffffffffff1673ffffffffffffffffffffffffffffffffffffffff16815260200190815260200160002060008282540192505081905550816002600083815260200190815260200160002060006101000a81548173ffffffffffffffffffffffffffffffffffffffff021916908373ffffffffffffffffffffffffffffffffffffffff160217905550808273ffffffffffffffffffffffffffffffffffffffff16600073ffffffffffffffffffffffffffffffffffffffff167fddf252ad1be2c89b69c2b068fc378daa952ba7f163c4a11628f55a4df523b3ef60405160405180910390a4612fa4600083836001612888565b5050565b6000808273ffffffffffffffffffffffffffffffffffffffff163b119050919050565b50505050565b6008805490506009600083815260200190815260200160002081905550600881908060018154018082558091505060019003906000526020600020016000909190919091505550565b60006001613027846110fe565b6130319190614782565b9050600060076000848152602001908152602001600020549050818114613116576000600660008673ffffffffffffffffffffffffffffffffffffffff1673ffffffffffffffffffffffffffffffffffffffff168152602001908152602001600020600084815260200190815260200160002054905080600660008773ffffffffffffffffffffffffffffffffffffffff1673ffffffffffffffffffffffffffffffffffffffff168152602001908152602001600020600084815260200190815260200160002081905550816007600083815260200190815260200160002081905550505b6007600084815260200190815260200160002060009055600660008573ffffffffffffffffffffffffffffffffffffffff1673ffffffffffffffffffffffffffffffffffffffff16815260200190815260200160002060008381526020019081526020016000206000905550505050565b6000600160088054905061319b9190614782565b90506000600960008481526020019081526020016000205490506000600883815481106131cb576131ca6140b2565b5b9060005260206000200154905080600883815481106131ed576131ec6140b2565b5b90600052602060002001819055508160096000838152602001908152602001600020819055506009600085815260200190815260200160002060009055600880548061323c5761323b6147b6565b5b6001900381819060005260206000200160009055905550505050565b6000613263836110fe565b905081600660008573ffffffffffffffffffffffffffffffffffffffff1673ffffffffffffffffffffffffffffffffffffffff168152602001908152602001600020600083815260200190815260200160002081905550806007600084815260200190815260200160002081905550505050565b6040518060c001604052806000815260200160008152602001600073ffffffffffffffffffffffffffffffffffffffff168152602001600073ffffffffffffffffffffffffffffffffffffffff168152602001600081526020016000151581525090565b6000604051905090565b600080fd5b600080fd5b60007fffffffff0000000000000000000000000000000000000000000000000000000082169050919050565b6133848161334f565b811461338f57600080fd5b50565b6000813590506133a18161337b565b92915050565b6000602082840312156133bd576133bc613345565b5b60006133cb84828501613392565b91505092915050565b60008115159050919050565b6133e9816133d4565b82525050565b600060208201905061340460008301846133e0565b92915050565b600081519050919050565b600082825260208201905092915050565b60005b83811015613444578082015181840152602081019050613429565b60008484015250505050565b6000601f19601f8301169050919050565b600061346c8261340a565b6134768185613415565b9350613486818560208601613426565b61348f81613450565b840191505092915050565b600060208201905081810360008301526134b48184613461565b905092915050565b6000819050919050565b6134cf816134bc565b81146134da57600080fd5b50565b6000813590506134ec816134c6565b92915050565b60006020828403121561350857613507613345565b5b6000613516848285016134dd565b91505092915050565b600073ffffffffffffffffffffffffffffffffffffffff82169050919050565b600061354a8261351f565b9050919050565b61355a8161353f565b82525050565b60006020820190506135756000830184613551565b92915050565b6135848161353f565b811461358f57600080fd5b50565b6000813590506135a18161357b565b92915050565b600080604083850312156135be576135bd613345565b5b60006135cc85828601613592565b92505060206135dd858286016134dd565b9150509250929050565b6135f0816134bc565b82525050565b600060208201905061360b60008301846135e7565b92915050565b60008060006060848603121561362a57613629613345565b5b600061363886828701613592565b935050602061364986828701613592565b925050604061365a868287016134dd565b9150509250925092565b600060c082019050818103600083015261367e8189613461565b905081810360208301526136928188613461565b90506136a160408301876135e7565b81810360608301526136b38186613461565b905081810360808301526136c78185613461565b905081810360a08301526136db8184613461565b9050979650505050505050565b6000602082840312156136fe576136fd613345565b5b600061370c84828501613592565b91505092915050565b600081519050919050565b600082825260208201905092915050565b6000819050602082019050919050565b61374a816134bc565b82525050565b6137598161353f565b82525050565b613768816133d4565b82525050565b60c0820160008201516137846000850182613741565b5060208201516137976020850182613741565b5060408201516137aa6040850182613750565b5060608201516137bd6060850182613750565b5060808201516137d06080850182613741565b5060a08201516137e360a085018261375f565b50505050565b60006137f5838361376e565b60c08301905092915050565b6000602082019050919050565b600061381982613715565b6138238185613720565b935061382e83613731565b8060005b8381101561385f57815161384688826137e9565b975061385183613801565b925050600181019050613832565b5085935050505092915050565b60006020820190508181036000830152613886818461380e565b905092915050565b600060c0820190506138a360008301896135e7565b6138b060208301886135e7565b6138bd6040830187613551565b6138ca6060830186613551565b6138d760808301856135e7565b6138e460a08301846133e0565b979650505050505050565b600080fd5b600080fd5b7f4e487b7100000000000000000000000000000000000000000000000000000000600052604160045260246000fd5b61393182613450565b810181811067ffffffffffffffff821117156139505761394f6138f9565b5b80604052505050565b600061396361333b565b905061396f8282613928565b919050565b600067ffffffffffffffff82111561398f5761398e6138f9565b5b61399882613450565b9050602081019050919050565b82818337600083830152505050565b60006139c76139c284613974565b613959565b9050828152602081018484840111156139e3576139e26138f4565b5b6139ee8482856139a5565b509392505050565b600082601f830112613a0b57613a0a6138ef565b5b8135613a1b8482602086016139b4565b91505092915050565b600080600080600060a08688031215613a4057613a3f613345565b5b6000613a4e88828901613592565b955050602086013567ffffffffffffffff811115613a6f57613a6e61334a565b5b613a7b888289016139f6565b9450506040613a8c888289016134dd565b935050606086013567ffffffffffffffff811115613aad57613aac61334a565b5b613ab9888289016139f6565b925050608086013567ffffffffffffffff811115613ada57613ad961334a565b5b613ae6888289016139f6565b9150509295509295909350565b600080600060608486031215613b0c57613b0b613345565b5b6000613b1a868287016134dd565b9350506020613b2b86828701613592565b9250506040613b3c868287016134dd565b9150509250925092565b613b4f816133d4565b8114613b5a57600080fd5b50565b600081359050613b6c81613b46565b92915050565b60008060408385031215613b8957613b88613345565b5b6000613b9785828601613592565b9250506020613ba885828601613b5d565b9150509250929050565b600067ffffffffffffffff821115613bcd57613bcc6138f9565b5b613bd682613450565b9050602081019050919050565b6000613bf6613bf184613bb2565b613959565b905082815260208101848484011115613c1257613c116138f4565b5b613c1d8482856139a5565b509392505050565b600082601f830112613c3a57613c396138ef565b5b8135613c4a848260208601613be3565b91505092915050565b60008060008060808587031215613c6d57613c6c613345565b5b6000613c7b87828801613592565b9450506020613c8c87828801613592565b9350506040613c9d878288016134dd565b925050606085013567ffffffffffffffff811115613cbe57613cbd61334a565b5b613cca87828801613c25565b91505092959194509250565b60008060408385031215613ced57613cec613345565b5b6000613cfb85828601613592565b9250506020613d0c85828601613592565b9150509250929050565b7f4e487b7100000000000000000000000000000000000000000000000000000000600052602160045260246000fd5b60028110613d5657613d55613d16565b5b50565b6000819050613d6782613d45565b919050565b6000613d7782613d59565b9050919050565b613d8781613d6c565b82525050565b600060c082019050613da26000830189613d7e565b8181036020830152613db48188613461565b9050613dc360408301876135e7565b8181036060830152613dd58186613461565b90508181036080830152613de98185613461565b905081810360a0830152613dfd8184613461565b9050979650505050505050565b7f4e487b7100000000000000000000000000000000000000000000000000000000600052602260045260246000fd5b60006002820490506001821680613e5157607f821691505b602082108103613e6457613e63613e0a565b5b50919050565b7f4552433732313a20617070726f76616c20746f2063757272656e74206f776e6560008201527f7200000000000000000000000000000000000000000000000000000000000000602082015250565b6000613ec6602183613415565b9150613ed182613e6a565b604082019050919050565b60006020820190508181036000830152613ef581613eb9565b9050919050565b7f4552433732313a20617070726f76652063616c6c6572206973206e6f7420746f60008201527f6b656e206f776e6572206f7220617070726f76656420666f7220616c6c000000602082015250565b6000613f58603d83613415565b9150613f6382613efc565b604082019050919050565b60006020820190508181036000830152613f8781613f4b565b9050919050565b7f4552433732313a2063616c6c6572206973206e6f7420746f6b656e206f776e6560008201527f72206f7220617070726f76656400000000000000000000000000000000000000602082015250565b6000613fea602d83613415565b9150613ff582613f8e565b604082019050919050565b6000602082019050818103600083015261401981613fdd565b9050919050565b7f455243373231456e756d657261626c653a206f776e657220696e646578206f7560008201527f74206f6620626f756e6473000000000000000000000000000000000000000000602082015250565b600061407c602b83613415565b915061408782614020565b604082019050919050565b600060208201905081810360008301526140ab8161406f565b9050919050565b7f4e487b7100000000000000000000000000000000000000000000000000000000600052603260045260246000fd5b7f4e487b7100000000000000000000000000000000000000000000000000000000600052601160045260246000fd5b600061411b826134bc565b91507fffffffffffffffffffffffffffffffffffffffffffffffffffffffffffffffff820361414d5761414c6140e1565b5b600182019050919050565b7f455243373231456e756d657261626c653a20676c6f62616c20696e646578206f60008201527f7574206f6620626f756e64730000000000000000000000000000000000000000602082015250565b60006141b4602c83613415565b91506141bf82614158565b604082019050919050565b600060208201905081810360008301526141e3816141a7565b9050919050565b7f4552433732313a20696e76616c696420746f6b656e2049440000000000000000600082015250565b6000614220601883613415565b915061422b826141ea565b602082019050919050565b6000602082019050818103600083015261424f81614213565b9050919050565b7f4552433732313a2061646472657373207a65726f206973206e6f74206120766160008201527f6c6964206f776e65720000000000000000000000000000000000000000000000602082015250565b60006142b2602983613415565b91506142bd82614256565b604082019050919050565b600060208201905081810360008301526142e1816142a5565b9050919050565b60008190508160005260206000209050919050565b60006020601f8301049050919050565b600082821b905092915050565b60006008830261434a7fffffffffffffffffffffffffffffffffffffffffffffffffffffffffffffffff8261430d565b614354868361430d565b95508019841693508086168417925050509392505050565b6000819050919050565b600061439161438c614387846134bc565b61436c565b6134bc565b9050919050565b6000819050919050565b6143ab83614376565b6143bf6143b782614398565b84845461431a565b825550505050565b600090565b6143d46143c7565b6143df8184846143a2565b505050565b5b81811015614403576143f86000826143cc565b6001810190506143e5565b5050565b601f82111561444857614419816142e8565b614422846142fd565b81016020851015614431578190505b61444561443d856142fd565b8301826143e4565b50505b505050565b600082821c905092915050565b600061446b6000198460080261444d565b1980831691505092915050565b6000614484838361445a565b9150826002028217905092915050565b61449d8261340a565b67ffffffffffffffff8111156144b6576144b56138f9565b5b6144c08254613e39565b6144cb828285614407565b600060209050601f8311600181146144fe57600084156144ec578287015190505b6144f68582614478565b86555061455e565b601f19841661450c866142e8565b60005b828110156145345784890151825560018201915060208501945060208101905061450f565b86831015614551578489015161454d601f89168261445a565b8355505b6001600288020188555050505b505050505050565b7f4e6f74204e4654206f776e657200000000000000000000000000000000000000600082015250565b600061459c600d83613415565b91506145a782614566565b602082019050919050565b600060208201905081810360008301526145cb8161458f565b9050919050565b7f4f66666572206e6f742061637469766500000000000000000000000000000000600082015250565b6000614608601083613415565b9150614613826145d2565b602082019050919050565b60006020820190508181036000830152614637816145fb565b9050919050565b7f4e6f742074686520726563697069656e74000000000000000000000000000000600082015250565b6000614674601183613415565b915061467f8261463e565b602082019050919050565b600060208201905081810360008301526146a381614667565b9050919050565b7f4e6f7420656e6f756768204554482073656e7400000000000000000000000000600082015250565b60006146e0601383613415565b91506146eb826146aa565b602082019050919050565b6000602082019050818103600083015261470f816146d3565b9050919050565b7f53656c6c6572206e6f206c6f6e676572206f776e73204e465400000000000000600082015250565b600061474c601983613415565b915061475782614716565b602082019050919050565b6000602082019050818103600083015261477b8161473f565b9050919050565b600061478d826134bc565b9150614798836134bc565b92508282039050818111156147b0576147af6140e1565b5b92915050565b7f4e487b7100000000000000000000000000000000000000000000000000000000600052603160045260246000fd5b600081905092915050565b60006147fb8261340a565b61480581856147e5565b9350614815818560208601613426565b80840191505092915050565b600061482d82856147f0565b915061483982846147f0565b91508190509392505050565b7f4552433732313a207472616e736665722066726f6d20696e636f72726563742060008201527f6f776e6572000000000000000000000000000000000000000000000000000000602082015250565b60006148a1602583613415565b91506148ac82614845565b604082019050919050565b600060208201905081810360008301526148d081614894565b9050919050565b7f4552433732313a207472616e7366657220746f20746865207a65726f2061646460008201527f7265737300000000000000000000000000000000000000000000000000000000602082015250565b6000614933602483613415565b915061493e826148d7565b604082019050919050565b6000602082019050818103600083015261496281614926565b9050919050565b7f4552433732313a20617070726f766520746f2063616c6c657200000000000000600082015250565b600061499f601983613415565b91506149aa82614969565b602082019050919050565b600060208201905081810360008301526149ce81614992565b9050919050565b7f4552433732313a207472616e7366657220746f206e6f6e20455243373231526560008201527f63656976657220696d706c656d656e7465720000000000000000000000000000602082015250565b6000614a31603283613415565b9150614a3c826149d5565b604082019050919050565b60006020820190508181036000830152614a6081614a24565b9050919050565b7f4e487b7100000000000000000000000000000000000000000000000000000000600052601260045260246000fd5b600081519050919050565b600082825260208201905092915050565b6000614abd82614a96565b614ac78185614aa1565b9350614ad7818560208601613426565b614ae081613450565b840191505092915050565b6000608082019050614b006000830187613551565b614b0d6020830186613551565b614b1a60408301856135e7565b8181036060830152614b2c8184614ab2565b905095945050505050565b600081519050614b468161337b565b92915050565b600060208284031215614b6257614b61613345565b5b6000614b7084828501614b37565b91505092915050565b7f455243373231456e756d657261626c653a20636f6e736563757469766520747260008201527f616e7366657273206e6f7420737570706f727465640000000000000000000000602082015250565b6000614bd5603583613415565b9150614be082614b79565b604082019050919050565b60006020820190508181036000830152614c0481614bc8565b9050919050565b7f4552433732313a206d696e7420746f20746865207a65726f2061646472657373600082015250565b6000614c41602083613415565b9150614c4c82614c0b565b602082019050919050565b60006020820190508181036000830152614c7081614c34565b9050919050565b7f4552433732313a20746f6b656e20616c7265616479206d696e74656400000000600082015250565b6000614cad601c83613415565b9150614cb882614c77565b602082019050919050565b60006020820190508181036000830152614cdc81614ca0565b905091905056fea26469706673582212200cd63b76f5414f3d7f90a05c4578fdefcb98d4d8c6414a72b5864058cd2886cb64736f6c63430008140033",
  "linkReferences": {},
  "deployedLinkReferences": {}
}